:100000000C9461000C947E000C947E000C947E0095
:100010000C947E000C947E000C947E000C947E0068
:100020000C947E000C947E000C947E000C947E0058
:100030000C947E000C947E000C947E000C947E0048
:100040000C9400010C947E000C947E000C947E00B5
:100050000C947E000C947E000C947E000C947E0028
:100060000C947E000C947E0000000000230026000B
:10007000290000000008000201000003040700003E
:1000800000000000000000000000250028002B00F8
:1000900000000000240027002A00040404040404D3
:1000A0000404020202020202030303030303010227
:1000B00004081020408001020408102001020408F6
:1000C000102011241FBECFEFD8E0DEBFCDBF11E05E
:1000D000A0E0B1E0E8E9F6E002C005900D92AC3096
:1000E000B107D9F721E0ACE0B1E001C01D92AD311C
:1000F000B207E1F70E944A010C944A030C940000F5
:10010000833081F028F4813099F08230A9F008958D
:100110008730A9F08830C9F08430B1F48091800034
:100120008F7D03C0809180008F7780938000089539
:1001300084B58F7784BD089584B58F7DFBCF809182
:10014000B0008F778093B00008958091B0008F7DCC
:10015000F9CFCF93DF93282F30E0F901EE58FF4F0E
:100160008491F901E255FF4FD491F901E656FF4F12
:10017000C491CC23A1F081110E948000EC2FF0E00B
:10018000EE0FFF1FE859FF4FA591B491EC91ED23BD
:1001900081E090E009F480E0DF91CF91089580E064
:1001A00090E0FACF1F93CF93DF93282F30E0F9012F
:1001B000EE58FF4F8491F901E255FF4FD491F901B8
:1001C000E656FF4FC491CC23A9F0162F81110E944F
:1001D0008000EC2FF0E0EE0FFF1FEA57FF4FA591D4
:1001E000B4918FB7F894EC91111108C0D095DE232B
:1001F000DC938FBFDF91CF911F910895DE2BF8CF55
:100200001F920F920FB60F9211242F933F938F934B
:100210009F93AF93BF938091110190911201A09190
:100220001301B09114013091100123E0230F2D37F9
:1002300058F50196A11DB11D209310018093110165
:1002400090931201A0931301B093140180910C01BB
:1002500090910D01A0910E01B0910F010196A11D89
:10026000B11D80930C0190930D01A0930E01B093EA
:100270000F01BF91AF919F918F913F912F910F905F
:100280000FBE0F901F90189526E8230F0296A11D10
:10029000B11DD2CF789484B5826084BD84B581606D
:1002A00084BD85B5826085BD85B5816085BD809141
:1002B0006E00816080936E001092810080918100B9
:1002C00082608093810080918100816080938100B1
:1002D000809180008160809380008091B100846073
:1002E0008093B1008091B00081608093B0008091D4
:1002F0007A00846080937A0080917A008260809393
:100300007A0080917A00816080937A0080917A00EF
:10031000806880937A001092C100C2E0D0E0FE01B4
:10032000E255FF4F2491FE01E656FF4F849188234A
:1003300099F090E0880F991FFC01E057FF4FA591BD
:10034000B491FC01EA57FF4F859194918FB7F894CF
:10035000EC91E22BEC938FBFCC30D10524F061E01F
:100360008C2F0E94D2002196CE30D105C1F660E0DC
:100370008BE00E94D20090E0692E90E0792E02E09E
:1003800010E02CE0822E912CEE24E394F12C4AE034
:10039000C42ED12C2FB7F8948091110190911201A5
:1003A000A0911301B09114012FBF409119015091F8
:1003B0001A0160911B0170911C011C012D01241A6E
:1003C000350A460A570AB201A101453051056105B7
:1003D000710508F448C18093190190931A01A09304
:1003E0001B01B0931C0140911501509116016091C1
:1003F0001701709118011C012D01241A350A460AB3
:10040000570AB201A101443F51406105710508F44A
:100410004EC0C0910A01D0910B01809315019093B9
:100420001601A0931701B0931801CC31D1050CF03F
:100430006BC0A0900801B09009018BE0A816B10430
:1004400064F461E08A2D0E94D2002FEFA21AB20A52
:10045000B0920901A092080125C0CB31D10549F025
:100460008091060190910701019690930701809376
:10047000060180910601909107010B979CF0109363
:10048000070100930601A0900401B090050160E00F
:100490008A2D0E94D2008FEFA81AB80AB0920501E7
:1004A000A09204012196D0930B01C0930A01809180
:1004B0000A0190910B018C3191050CF486C04C9788
:1004C0004B9708F0D0C0C0910401D0910501CC3009
:1004D000D1050CF4C8C08AE0A82EB12C8091060189
:1004E000909107018A159B050CF09EC08A2D0E94F1
:1004F000A90060E0019709F061E08A2D0E94D20016
:1005000021E0A21AB108EACFCE014C974A9788F5AC
:1005100080910601909107010197909307018093C4
:10052000060102979CF4A0900401B0900501D092BE
:100530000701C092060161E08A2D0E94D20021E0ED
:10054000A21AB108B0920501A092040180910401A1
:10055000909105010B9709F0A5CFA0900801B090EC
:10056000090160E08A2D0E94D20081E0A81AB1083A
:100570006FCF1093090100930801109307010093B6
:1005800006019092050180920401F0920B01E09225
:100590000A01F0920301E0920201F0920101E0925F
:1005A000000160E08BE00E94D20061E08CE00E94DC
:1005B000D20061E08DE00E94D200C2E060E08C2FAA
:1005C0000E94D200CF5FCB30C9F780910801909193
:1005D00009010B970CF447C0CAE0D0E080910601F6
:1005E00090910701C817D90764F08C2F0E94A900C9
:1005F00060E0019709F061E08C2F0E94D200219702
:10060000EDCFC0910401D0910501CC30D1055CF152
:100610008C2F0E94A90061E0892B09F060E08C2FEB
:100620000E94D2002197F1CFCD30D10519F58091EC
:10063000020190910301019741F41092030110927D
:10064000020161E08DE00E94D2008C2F0E94A9007F
:1006500061E0892B09F060E08C2F0E94D200219785
:10066000CB30D10591F76114710409F493CE0E9447
:10067000000090CECC30D10541F7809100019091DF
:100680000101019711F7109201011092000161E040
:080690008CE0D9CFF894FFCFF4
:0C069800010001000C0002000200010043
:00000001FF
